:100000000C943D040C9465040C9465040C946504F4
:100010000C9465040C9465040C9465040C946504BC
:100020000C9465040C9465040C945C0C0C94CE0C3C
:100030000C9465040C9465040C9465040C9465049C
:100040000C9465040C9485080C9465040C94650468
:100050000C9465040C9465040C9465040C94C50719
:100060000C9465040C9465040C9465040C9465046C
:100070000C9465040C9465040C9465040C9465045C
:100080000C9423090C9465040C9465040C94650489
:100090000C9465040C9465040C9465040C9465043C
:1000A0000C9465040C9465040C946504BD04C004B0
:1000B000AF04B304B704E104E104E104C404C804D8
:1000C000CC04D204D604E104DC041A071F07240779
:1000D0002E07380782078207820742074C07560718
:1000E00060076D078207750700000000003E5B4F48
:1000F0005B3E3E6B4F6B3E1C3E7C3E1C183C7E3C88
:10010000181C577D571C1C5E7F5E1C00183C180095
:10011000FFE7C3E7FF0018241800FFE7DBE7FF3025
:10012000483A060E2629792926407F050507407F93
:1001300005253F5A3CE73C5A7F3E1C1C08081C1C06
:100140003E7F14227F22145F5F005F5F06097F01FC
:100150007F006689956A606060606094A2FFA294E7
:1001600008047E040810207E201008082A1C0808B5
:100170001C2A08081E101010100C1E0C1E0C303803
:100180003E3830060E3E0E06000000000000005F04
:1001900000000007000700147F147F14242A7F2A20
:1001A00012231308646236495620500008070300E2
:1001B000001C2241000041221C002A1C7F1C2A082E
:1001C000083E080800807030000808080808000091
:1001D00060600020100804023E5149453E00427F05
:1001E000400072494949462141494D331814127F54
:1001F0001027454545393C4A4949314121110907F4
:100200003649494936464949291E00001400000074
:100210004034000000081422411414141414004146
:1002200022140802015909063E415D594E7C121103
:10023000127C7F494949363E414141227F4141413B
:100240003E7F494949417F090909013E41415173B6
:100250007F0808087F00417F41002040413F017F27
:10026000081422417F404040407F021C027F7F04EF
:1002700008107F3E4141413E7F090909063E415138
:10028000215E7F09192946264949493203017F0128
:10029000033F4040403F1F2040201F3F4038403F29
:1002A000631408146303047804036159494D43003F
:1002B0007F4141410204081020004141417F040276
:1002C000010204404040404000030708002054540D
:1002D00078407F28444438384444442838444428EB
:1002E0007F385454541800087E090218A4A49C783E
:1002F0007F0804047800447D40002040403D007F9A
:100300001028440000417F40007C047804787C0879
:100310000404783844444438FC182424181824244D
:1003200018FC7C08040408485454542404043F4432
:10033000243C4040207C1C2040201C3C4030403C61
:1003400044281028444C9090907C4464544C4400C1
:100350000836410000007700000041360800020125
:100360000204023C2623263C1EA1A161123A404011
:10037000207A38545455592155557941215454788F
:1003800041215554784020545579400C1E52721228
:1003900039555555593954545459395554545800B0
:1003A00000457C410002457D420001457C40F0292A
:1003B0002429F0F0282528F07C5455450020545479
:1003C0007C547C0A097F49324949493232484848BD
:1003D00032324A4848303A4141217A3A4240207804
:1003E000009DA0A07D39444444393D4040403D3CFF
:1003F00024FF2424487E4943662B2FFC2F2BFF0922
:1004000029F620C0887E0903205454794100004415
:100410007D413048484A32384040227A007A0A0A00
:10042000727D0D19317D2629292F28262929292673
:1004300030484D4020380808080808080808382FB8
:1004400010C8ACBA2F102834FA00007B0000081442
:100450002A142222142A14089500220095AA005575
:1004600000AAAA55AA55AA000000FF00101010FF0C
:1004700000141414FF001010FF00FF1010F010F013
:10048000141414FC001414F700FF0000FF00FF1404
:1004900014F404FC141417101F10101F101F141450
:1004A000141F00101010F0000000001F101010109A
:1004B0001F10101010F010000000FF10101010108E
:1004C00010101010FF10000000FF140000FF00FFCC
:1004D00000001F10170000FC04F414141710171468
:1004E00014F404F40000FF00F7141414141414148A
:1004F000F700F7141414171410101F101F141414FD
:10050000F4141010F010F000001F101F0000001F66
:1005100014000000FC140000F010F01010FF10FF99
:10052000141414FF141010101F00000000F010FF2E
:10053000FFFFFFFFF0F0F0F0F0FFFFFF0000000012
:1005400000FFFF0F0F0F0F0F38444438447C2A2A56
:100550003E147E02020606027E027E026355494177
:10056000633844443C04407E201E2006027E020282
:1005700099A5E7A5991C2A492A1C4C7201724C3096
:100580004A4D4D303048784830BC625A463D3E496D
:100590004949007E0101017E2A2A2A2A2A44445F11
:1005A000444440514A444040444A51400000FF0105
:1005B00003E080FF000008086B6B08361236243613
:1005C000060F090F06000018180000001010003078
:1005D00040FF0101001F01011E00191D1712003C00
:1005E0003C3C3C00000000000601150126013701DB
:1005F0004A015D01720188019F01B801D201EE013B
:100600000B022A024B026E029302BA02E4021003AA
:100610003F037003A403DC03170455049704DD04AF
:1006200027057505C80520067D06E0064907B807B9
:100630002D08A9082D09B9094D0AEA0A900B400CAA
:10064000FA0CC00D910E6F0F5A1053115B127213FA
:100650009A14D41520178018F519801B231DDE1E4F
:10066000B420A622B524E4263429A72B402E00313D
:10067000EA330037453ABC3D68414C456B49C84DAB
:1006800068524F57805C006210111213151617182C
:100690001A1C1D1F21232527292C2E3134373A3EC1
:1006A0004145494E52575C62686E757B838B939CC3
:1006B000A5AFB9C4D0DCE9F70000000200090F00C3
:1006C00000030401000C0000000000000000000016
:1006D00000000000000000F0F89C8E8783878E9C4D
:1006E000F8F00000FEFF0303030303070EFCF8000D
:1006F00000FEFF0303030303070EFCF80000FFFFE7
:1007000000000000000000FFFF0000FEFF83838365
:100710008383C7EE7C380000F8FC0E070303030751
:100720000EFCF800003F7FE0C08080C0E07F3FFF0C
:10073000FF01010101010101FFFF0000FFFF0C0C9F
:100740000C0C1C3E77E3C100007FFFC0C0C0C0C0DE
:10075000E0703F1F00001F3F70E0C0C0C0E0703F6E
:100760001F00007FFFC1C1C1C1C1E3773E1C000073
:100770001F3F70E0C0C0C0E0703F1F0000000000DD
:1007800001FFFF0100000000000000240027002AF4
:10079000002D003000D5F08D14A1C881CFD9F1AF64
:1007A00020001402130212021502070208020401BB
:1007B0000C01060100080B000202020100090400FE
:1007C00000010202000005240010010524010101BE
:1007D00004240206052406000107058103100040D9
:1007E00009040100020A000000070502024000009F
:1007F000070583024000000403090412010002EF10
:10080000020140412336800001010203014172646C
:1008100075696E6F204C4C430041726475696E6F50
:10082000204C656F6E6172646F0004080201104015
:100830008040102040804080080204018040201049
:1008400002011080102040402000000000250028F8
:10085000002B002E003100040404040403040502EC
:10086000020202040302020202060606060606044B
:100870000402020204040301ED1311241FBECFEF92
:10088000DAE0DEBFCDBF11E0A0E0B1E0E8EEF9E2D2
:1008900002C005900D92AA33B107D9F725E0AAE36B
:1008A000B1E001C01D92A33EB207E1F714E0CDE331
:1008B000D4E004C02197FE010E94E714CC33D10795
:1008C000C9F70E94FE0E0C94F2140C940000CF9213
:1008D000DF92EF92FF920F931F93CF93DF936C0100
:1008E0007A018B01C0E0D0E0CE15DF0589F0D80198
:1008F0006D918D01D601ED91FC910190F081E02D7B
:10090000C6010995892B11F47E0102C02196ECCF16
:10091000C701DF91CF911F910F91FF90EF90DF9072
:10092000CF900895362F90E0FC01E854F94F4491A0
:10093000FC01E65DF74F2491FC01E95AF74F8491E1
:10094000882309F451C04423E1F150E0FA013197C2
:10095000EF30F105B0F5EA5AFF4F0C94E71490918F
:1009600080009F7707C0909180009F7D03C0909189
:100970008000977F9093800024C094B59F7702C039
:1009800094B59F7D94BD1DC0909190009F7707C046
:10099000909190009F7D03C090919000977F9093DD
:1009A00090000FC09091C0009F7703C09091C0004D
:1009B0009F7D9093C00005C09091C200977F909357
:1009C000C200E82FF0E0EE0FFF1FE75BF74FA591A5
:1009D000B4918FB7F894EC91311103C020952E2378
:1009E00001C02E2B2C938FBF08953FB7F8948091B0
:1009F000490190914A01A0914B01B0914C0126B55B
:100A0000A89B05C02F3F19F00196A11DB11D3FBF46
:100A1000BA2FA92F982F8827820F911DA11DB11DD4
:100A2000BC01CD0142E0660F771F881F991F4A95D0
:100A3000D1F708958FB12CB193B130E02095309566
:100A400020743327A90123E0559547952A95E1F7AE
:100A5000292F30E020953095207133273595279543
:100A600035952795242B8095807F822B0895FC0156
:100A700021912EBD9C5F21910DB407FEFDCF2EBDAF
:100A8000E817F907C1F70DB407FEFDCF08956038E8
:100A9000710518F54034510500F5A42FA695A695CB
:100AA000A695B0E047705527B695BA2FAA27B795F7
:100AB000A7956A0F7B1FFC01E60FF71F81E090E00E
:100AC00001C0880F4A95EAF7222319F09489892BEF
:100AD00003C0809594898923848B08952F923F9237
:100AE0004F925F926F927F928F929F92AF92BF923E
:100AF000CF92DF92EF92FF920F931F93CF93DF93EA
:100B0000CDB7DEB72A970FB6F894DEBF0FBECDBFC4
:100B10006A3091F4FC01E85EFB4F408132972081FE
:100B2000318158E0459F200D311D112431832083F0
:100B3000329711821082C1C06D3009F4BEC09A870D
:100B40008987885E9B4F9C838B83DC012C90E98591
:100B5000FA85EA5EFB4F60807180E985FA85EC5E7C
:100B6000FB4FFA83E9830081118100381105D4F02D
:100B7000AB81BC812C91422F50E0E981FA818081C8
:100B80009181F6E02F9F800D911D1124A981BA81DA
:100B90008D939C93E985FA85E75EFB4F20812111B7
:100BA0005EC08BC0B0E46B16710414F7C801E5E0B9
:100BB0002E9E800D911D112418161906CCF6422C7C
:100BC000512CC301F8E02F9E800D911D11241816A1
:100BD000190674F655E0659F900111243F832E831A
:100BE000E12CF12C85E0E816F10441F0EE81FF8163
:100BF000EE0DFF1DE851FF4F349001C0312C630111
:100C000038E0932D91709D834801882D801B8215BB
:100C1000B0F456018A2D8C19821568F42D81A50136
:100C2000B40189859A8538870E944705AFEFAA1AD3
:100C3000BA0A3885EFCFBFEF8B1A9B0AE6CF3694FE
:100C40003150C40CD51C3111DCCFEFEFEE1AFE0A87
:100C5000040D151DF6E0EF16F10421F689CF6AEFB9
:100C600064039001659F300D112420583F4F2817D1
:100C700039071CF5A985BA85ED91FC911197019072
:100C8000F081E02D6AE0CD012A960FB6F894DEBF20
:100C90000FBECDBFDF91CF911F910F91FF90EF90CD
:100CA000DF90CF90BF90AF909F908F907F906F908C
:100CB0005F904F903F902F9009942A960FB6F8942A
:100CC000DEBF0FBECDBFDF91CF911F910F91FF907F
:100CD000EF90DF90CF90BF90AF909F908F907F90DC
:100CE0006F905F904F903F902F900895089580E00F
:100CF00090E008950E94ED1440915C0150915D01D7
:100D000020915A0130915B0142175307B4F490913E
:100D1000E8009570E1F39091E80092FD19C080938E
:100D2000F10080915C0190915D0101968F7399278C
:100D3000892B19F48EEF8093E80080915C019091EB
:100D40005D01019690935D0180935C0181E00895BF
:100D500080E00895615030F02091F100FC01208383
:100D60000196F8CF289884E6809361010895CF9387
:100D7000DF9390E0FC01E65DF74F2491FC01E95A16
:100D8000F74F8491882361F190E0880F991FFC014F
:100D9000E957F84FC591D491FC01E75BF74FA59156
:100DA000B491611109C09FB7F8948881209582237E
:100DB0008883EC912E230BC0623061F49FB7F894C6
:100DC0003881822F809583238883EC912E2B2C935E
:100DD0009FBF06C08FB7F894E8812E2B28838FBF62
:100DE000DF91CF9108951F93CF93DF93182FEB01DD
:100DF00061E00E94B706209711F460E004C0CF3F85
:100E0000D10539F461E0812FDF91CF911F910C94CE
:100E10009204E12FF0E0E854F94FE4914E2F50E0B6
:100E2000FA013197EF30F10508F06CC0EB59FF4F34
:100E30000C94E71484B5806884BDC7BD68C084B5D0
:100E4000806284BDC8BD63C080918000806880934B
:100E50008000D0938900C093880059C080918000A1
:100E6000806280938000D0938B00C0938A004FC033
:100E700080918000886080938000D0938D00C09323
:100E80008C0045C080919000806880939000D09342
:100E90009900C09398003BC080919000806280933D
:100EA0009000D0939B00C0939A0031C08091900035
:100EB000886080939000D0939D00C0939C0027C0D1
:100EC0008091C00080688093C0008091C0008F7BBB
:100ED0008093C000C093CF001AC08091C000806290
:100EE0008093C000C093D00012C08091C20088607F
:100EF0008093C2008091C2008B7F8093C200C09318
:100F0000D20005C0C038D1050CF07CCF76CFDF9180
:100F1000CF911F9108958F929F92AF92BF92CF92DF
:100F2000DF92EF92FF926B017C010E94F5044B016E
:100F30005C01C114D104E104F104F1F00E94F50454
:100F4000DC01CB0188199909AA09BB09883E9340A5
:100F5000A105B10570F321E0C21AD108E108F1083A
:100F600088EE880E83E0981EA11CB11CC114D10428
:100F7000E104F10419F7DDCFFF90EF90DF90CF90FF
:100F8000BF90AF909F908F9008951F920F920FB6D1
:100F90000F9211242F933F938F939F93AF93BF93FF
:100FA0008091560190915701A0915801B09159013B
:100FB0003091480123E0230F2D3720F40196A11D25
:100FC000B11D05C026E8230F0296A11DB11D209377
:100FD00048018093560190935701A0935801B09314
:100FE00059018091490190914A01A0914B01B09122
:100FF0004C010196A11DB11D8093490190934A01B6
:10100000A0934B01B0934C01BF91AF919F918F91F1
:101010003F912F910F900FBE0F901F901895CF9278
:10102000DF92EF92FF920F931F93CF93E82FF0E0A0
:10103000EA58F74FC491E62FF0E0603330F4E857F8
:10104000F94FE4910E2F10E006C0EE0FFF1FE85796
:10105000FA4F059114916801E12CF12C60E074E2E3
:1010600084EF90E0A70196010E948414BA01A901BF
:1010700041505109610971094115510581E0680725
:10108000710580F060E970ED83E090E0A7019601C2
:101090000E948414BA01A9014150510961097109E2
:1010A00083E001C081E0C130C9F0C33031F59091D7
:1010B0009100987F892B80939100509399004093E1
:1010C0009800109347010093460181E08093450109
:1010D000809171008260809371000FC090918100B7
:1010E000987F892B809381005093890040938800DA
:1010F00080916F00826080936F00CF911F910F915C
:10110000FF90EF90DF90CF9008951F920F920FB64F
:101110000F9211242F933F938F939F93AF93BF937D
:10112000EF93FF9380913E01882309F44DC0809195
:101130003A0190913B01A0913C01B0913D01892B76
:101140008A2B8B2B51F180916601E0916701F09120
:10115000680190818927808380913A0190913B01B9
:10116000A0913C01B0913D01181619061A061B0604
:10117000A4F580913A0190913B01A0913C01B0917E
:101180003D010197A109B10980933A0190933B0178
:10119000A0933C01B0933D0120C010923E0180918C
:1011A0006F008D7F80936F0090916601E0916701E1
:1011B000F09168018081282F30E0892F90E08095A0
:1011C00090958223932308C080916601E091670186
:1011D000F0916801908189278083FF91EF91BF9101
:1011E000AF919F918F913F912F910F900FBE0F90D4
:1011F0001F901895E82FF0E0EA58F74FE491E1309E
:1012000019F0E33069F0089580916F008D7F80932D
:101210006F0090916601E0916701F091680108C04C
:101220001092450190916301E0916401F091650194
:101230008081282F30E0892F90E08095909582233F
:101240009323808308951F920F920FB60F9211245B
:101250002F933F934F935F936F937F938F939F93BE
:10126000AF93BF93EF93FF9380914501882349F09B
:1012700080916301E0916401F0916501908189277B
:10128000808380914E01882309F493C080914101AD
:1012900090914201A0914301B0914401892B8A2B86
:1012A0008B2B09F486C08091410190914201A0915D
:1012B0004301B09144010197A109B1098093410113
:1012C00090934201A0934301B0934401892B8A2B50
:1012D0008B2B09F06EC0E0913F01F0914001BF01FE
:1012E0006F5F7F4F7093400160933F014491942F53
:1012F000907F842F8F70903819F40E94FA08EBCFFA
:10130000903981F43296F0934001E0933F01FB0164
:101310006491909169018917F0F667FDDCCF0E9416
:101320000F08D9CF903E29F41092400110923F014E
:10133000D2CF903F19F410924E013BC097FDCBCF16
:101340003296F0934001E0933F01FB01249130E09D
:10135000342BA0914601B09147010E94D8146C50E3
:101360007E4F8F4F9F4F28EE33E040E050E00E94C9
:10137000B6142093410130934201409343015093AE
:1013800044018091410190914201A0914301B091AB
:101390004401892B8A2B8B2B61F481E090E0A0E043
:1013A000B0E08093410190934201A0934301B09338
:1013B0004401FF91EF91BF91AF919F918F917F91E8
:1013C0006F915F914F913F912F910F900FBE0F90B2
:1013D0001F901895FC0180916201811103C08FEF6D
:1013E0009FEF08959FB7F89482E08093E9002091E1
:1013F000F20030E01216130614F421E030E021155B
:10140000310559F0289884E6809361018091F100BC
:1014100080838091F200882319F09FBFC90108954D
:101420008BE68093E800F9CF2FB7F89483E08093A0
:10143000E9009091E800892F807295FF04C0909197
:10144000F20080E4891B2FBF0895809189058111E6
:101450000DC082E08093850584E08093860510921C
:1014600088051092870581E08093890585E895E0DD
:101470000895CF93DF931F92CDB7DEB76983DC0168
:10148000ED91FC910280F381E02D41E050E0BE013E
:101490006F5F7F4F09950F90DF91CF91089583E0A3
:1014A0008093E9008091F200882319F08AE3809309
:1014B000E80008950E94140A90E00895CF93DF9306
:1014C0001F92CDB7DEB7FC018485958597FD05C0D9
:1014D0002FEF3FEF358724870BC0CE0101960E9486
:1014E000EA09019719F4898190E002C08FEF9FEF1C
:1014F0000F90DF91CF9108950F931F93CF93DF93B8
:101500001F92CDB7DEB78C01FC018485958597FFCE
:101510000EC0CE0101960E94EA09019719F42981B3
:1015200030E002C02FEF3FEFF80135872487F80144
:10153000848595850F90DF91CF911F910F9108952C
:10154000FC018485958597FD0BC09FB7F89482E0D8
:101550008093E9008091F2009FBF90E0019608958A
:101560009FB7F89482E08093E9008091F2009FBFDA
:1015700090E008958F929F92AF92BF92CF92DF92A8
:10158000EF92FF920F931F93CF93DF935C016B0158
:101590007A0180910F01882309F45BC08091620178
:1015A000882309F456C08091600180FF05C08091B6
:1015B000E00082608093E000E70110E00AEF83E042
:1015C000882E9AE3992E2097D9F10E94140A81114E
:1015D0000AC0015009F43DC061E070E080E090E095
:1015E0000E948B07F0CF282F30E0C217D3070CF4EE
:1015F0008C2F4FB7F8948092E9009091E80095FF06
:101600001DC0282F30E0C21BD30BF601982F91503C
:1016100020F081918093F100FACFC20ED31E1123E6
:1016200019F09092E80009C08091E80085FD06C09D
:101630009092E80011E0209709F010E04FBFC3CF6F
:101640001111C3CF5D9884E6809384051E141F0496
:1016500044F081E090E0F5019383828380E090E0A4
:1016600001C0C701DF91CF911F910F91FF90EF90C3
:10167000DF90CF90BF90AF909F908F900895CF92C2
:10168000DF92EF92FF920F931F93CF93DF931F92FE
:10169000CDB7DEB7182F062FE42E862F880F8E5F6A
:1016A00099830E947C0683E00E947C06F12EC12E65
:1016B0009981D92E8C2D8F19801798F4F601E7FEA9
:1016C00002C0849101C080810E947C06182F80E0B6
:1016D0000E947C068123FFEFCF1ADF0A8111EACF37
:1016E00001C081E00F90DF91CF911F910F91FF908A
:1016F000EF90DF90CF900895DF92EF92FF920F93DB
:101700001F93CF93DF93D82E8A017B01E40EF51E41
:10171000EB01CE15DF0571F0D7FE03C0FE01849109
:1017200001C088810E947C0621968111F2CF8FEF43
:101730009FEF01C0C801DF91CF911F910F91FF90E2
:10174000EF90DF9008950F931F93CF93DF931F9235
:10175000CDB7DEB782E0898342E450E065EB77E005
:1017600080E80E947C0B0E94250ADC0112960D91F4
:101770001C9113970115110569F0D801ED91FC91A9
:101780000280F381E02DBE016F5F7F4FC801099594
:1017900097FF07C089810F90DF91CF911F910F9123
:1017A0000895F80100851185E5CF20E08EE791E0EE
:1017B000B22FB111BFEFFC010024B193B193B193EB
:1017C000B1930394D1F70895CF93DF93909169017A
:1017D000923009F46EC0C82F292F30E0F901EA5881
:1017E000F74FD491F901EF56FA4F80839F5F9093A2
:1017F000690161E00E94B706D13019F0D33039F1A8
:1018000058C0109280001092810080918100886001
:1018100080938100809181008160809381008C2F72
:1018200090E0FC01E95AF74FE491F0E0EE0FFF1F62
:10183000E75BF74F2591349130936801209367015E
:10184000FC01E65DF74F84918093660132C01092EF
:101850009000109291008091910088608093910097
:10186000809191008160809391008C2F90E0FC0129
:10187000E95AF74FE491F0E0EE0FFF1FE75BF74FF7
:10188000259134913093650120936401FC01E65D5C
:10189000F74F84918093630180916901882321F03F
:1018A0006CE380E00E940F0880E0DF91CF910C9400
:1018B000FA08DF91CF9108951F920F920FB60F9201
:1018C00011248F939F938091E1009091E100937F89
:1018D0009093E10083FF0FC01092E90091E0909394
:1018E000EB001092EC0092E39093ED0010926201F5
:1018F00098E09093F00082FF20C093E09093E9007D
:101900009091F200992319F09AE39093E800909156
:101910008405992339F09091840591509093840522
:10192000992389F190916101992339F09091610196
:10193000915090936101992341F184FF10C08091EF
:10194000E2008E7E81608093E2008091E1008F7ED4
:101950008093E100809160018E7E806111C080FFE4
:1019600016C08091E2008E7E80618093E2008091BB
:10197000E1008E7E8093E100809160018E7E816027
:101980008093600104C05D9ACDCF289AD6CF9F91F5
:101990008F910F900FBE0F901F9018951F920F926E
:1019A0000FB60F921124CF92DF92EF92FF920F9316
:1019B0001F932F933F934F935F936F937F938F93D7
:1019C0009F93AF93BF93EF93FF93CF93DF93CDB7E5
:1019D000DEB76C97DEBFCDBF1092E9008091E800C2
:1019E00083FFEDC168E0CE0145960E94AA0682EF12
:1019F0008093E8008D8987FF05C09091E80090FFF3
:101A0000FCCF03C09EEF9093E800982F907609F0EA
:101A1000C6C09E892F89188D91110CC0803829F479
:101A200080915F018093F10002C01092F10010924A
:101A3000F10048C1422F50E0512B913051F48111F7
:101A400041C14130510509F03DC180915F018D7F59
:101A50000BC0933061F4811135C14130510509F05B
:101A600031C180915F01826080935F012BC195300D
:101A700041F48091E80080FFFCCF20682093E300D0
:101A800021C1963009F05FC0EB8CFC8C1092E9000C
:101A900010925D0110925C01123091F510925B0181
:101AA00010925A010E94A30B99E0BE016F5F7F4F15
:101AB000DB01E92F1D92EA95E9F799831A8391E0FA
:101AC0009E8390EA98879AEF998720915C013091E4
:101AD0005D01275F3F4F3C832B838D831092E9008C
:101AE00010925D0110925C01F0925B01E0925A014C
:101AF00049E050E080E00E947C0B0E94A30BE2C012
:101B0000F0925B01E0925A010E94250ADC011296D4
:101B1000ED90FC901397E114F10409F4C0C0D701D3
:101B2000ED91FC910480F581E02DBE016B5E7F4F4D
:101B3000C7010995009719F00CF0C4C0C7C0F701A0
:101B4000E084F184E8CF973009F4C0C0983021F4E4
:101B500081E08093F100B6C0993009F0B3C0837082
:101B600009F0B4C0E5E1F1E081E021E036E39081E5
:101B7000992361F08093E9002093EB009191909379
:101B8000EC003093ED008F5F873089F78EE780930C
:101B9000EA001092EA008F898093620193C08B8DD6
:101BA0009C8D1092E90010925D0110925C0190935F
:101BB0005B0180935A01898D811156C08E899D8960
:101BC000913A59F4813209F081C047E050E068E071
:101BD00071E080E00E947C0B75C0913209F076C004
:101BE000833289F4888D90E0982F88272F89822B63
:101BF000A0E0B0E08093040190930501A09306015A
:101C0000B09307015FC0803269F48091E80082FFE1
:101C1000FCCF67E088E091E00E94AA068BEF8093FA
:101C2000E80006C0823209F04DC08F8980930F0111
:101C300080915E01882319F0EEEFFAE002C0E0E047
:101C4000F8E08091080190910901A0910A01B091FA
:101C50000B01803B9440A105B10509F07BC0809148
:101C60000F0180FF93C076C00E94250ADC01129606
:101C70000D911C9113970115110541F1D801ED91BA
:101C8000FC910190F081E02DBE016B5E7F4FC80199
:101C90000995811117C0F80100851185ECCF11302D
:101CA00009F44EC0133091F48F89882309F445C09C
:101CB000823081F440E860E189E198E00E943F0BC6
:101CC000882321F08EEF8093E80079C081E2809331
:101CD000EB0075C0813029F440E86BE08DE098E0BE
:101CE000EDCF833099F70E94250ADC011296ED9022
:101CF000FC9013978E010F5F1F4F6801E114F104F0
:101D000079F0D701ED91FC910680F781E02DB801C3
:101D1000C7010995080F111DF701E084F184EECF8A
:101D2000D8011C92F60101900020E9F73197BF011C
:101D30006C197D0940E0C601C1CF67EF77E002C0B2
:101D40006BEF77E06115710509F2FB01449150E0FA
:101D500080E840CF0FB6F894A89580916000886124
:101D600080936000109260000FBEA895EE3F2AE0BD
:101D7000F20739F08091FE0A9091FF0A91838083E7
:101D8000A1CF1092FF0A1092FE0A9CCFEE3F8AE08C
:101D9000F80731F0808191819093FF0A8093FE0AC9
:101DA00087E797E7918380839BE088E10FB6F894FB
:101DB000A895809360000FBE9093600083CF6C96CF
:101DC0000FB6F894DEBF0FBECDBFDF91CF91FF916C
:101DD000EF91BF91AF919F918F917F916F915F91A3
:101DE0004F913F912F911F910F91FF90EF90DF90B6
:101DF000CF900F900FBE0F901F901895CF93DF9349
:101E000000D000D000D0CDB7DEB7789484B5826022
:101E100084BD84B5816084BD85B5826085BD85B58E
:101E2000816085BD80916E00816080936E0010920C
:101E30008100809181008260809381008091810087
:101E40008160809381008091800081608093800018
:101E500080919100826080939100809191008160D7
:101E60008093910080919000816080939000809198
:101E7000C10084608093C1008091C1008260809322
:101E8000C1008091C10081608093C1008091C30036
:101E900081608093C3008091C00082608093C00005
:101EA0008091C20081608093C20080917A0084603A
:101EB00080937A0080917A00826080937A0080918A
:101EC0007A00816080937A0080917A0080688093A4
:101ED0007A001092620110925F011092600180916D
:101EE000D70081608093D70080EA8093D80089B5BD
:101EF000806189BD89B5826089BD09B400FEFDCFCE
:101F000061E070E080E090E00E948B078091D80053
:101F10008F7C80618093D8008091E000807F8093E7
:101F2000E0008091E1008E7E8093E1008DE080935F
:101F3000E200559A209AEEEFFFE7859194918B3F4E
:101F40009C4D19F481E080935E011FB7F894809155
:101F50004F01811127C0E8E6F8E08491EBE3F8E057
:101F60009491E82FF0E0EE0FFF1FE957F84FA5918D
:101F7000B491EC91E92321F461E081E10E949204A3
:101F800061E081E10E94B7068CB580618CBD8CB5A3
:101F900080648CBD61E08FE00E94B70661E080E163
:101FA0000E94B70680914F018F5F80934F011FBF42
:101FB00002EA17E0F80184910E5F1F4F3196649199
:101FC000882319F00E94B706F5CF61E086E00E94F1
:101FD000920461E070E080E090E00E948B0760E096
:101FE00086E00E9492046AE070E080E090E00E9447
:101FF0008B0761E086E00E949204E3E6F8E0E4915A
:10200000F0E0EE0FFF1FE75BF74F859194919093FF
:10201000550180935401E6E3F8E0E491E093530125
:10202000EBE5F8E0E491F0E0EE0FFF1FE75BF74F20
:10203000859194919093520180935101EEE2F8E0E2
:10204000E491E09350018CB58C7F8CBD8DB581609F
:102050008DBDE0915401F091550190818091530123
:10206000982B9083A0915101B09152012C919091A5
:102070005001909592239C93908180958923808331
:10208000E5E9F7E007E0E23AF00749F084918EBD18
:1020900000000DB407FEFDCF8EB53196F3CFE09171
:1020A0005101F0915201908180915001892B8083E0
:1020B000E0915401F09155019081809153018095F8
:1020C0008923808380916400816080936400809183
:1020D00064008260809364008091640080688093D3
:1020E0006400809164008064809364008091650046
:1020F0008160809365000E941A0587FF1AC080E006
:1021000094E01EBC00000DB407FEFDCF2EB5019774
:10211000C1F760E070E08AE00E94F30660E070E0E2
:102120008BE00E94F30660E070E089E00E94F30615
:10213000FFCF2EEE3FEF3C832B83F8E14F2E882418
:102140008A94912C08E010E0842D3B81831BB4011C
:10215000681B71098AE00E94F3066FEF70E08BE064
:102160000E94F3066FEF70E089E00E94F3060E9480
:10217000D50B5B8040EF5416A4F48EE791E00E94EB
:1021800037056BE170E080E090E00E948B0750EF34
:10219000551267C06AEF70E080E090E00E948B0704
:1021A00060C02B813C8137FF03C0319521953109F7
:1021B000277033278B819C8197FD0796E3E09595E7
:1021C0008795EA95E1F72B803C8037FE05C00197A3
:1021D0003801621A730A93017C01F694FE2CEE24F6
:1021E000F794E79460E070E0A801421B530B5E8314
:1021F0004D83F701E058FF4F5F018F3FFFEF9F07CF
:1022000044F40196685A7F4F7501603B710589F768
:10221000B4CFD701AE5EBD4F40E050E08F3FEFEF4F
:102220009E0709F4BFC2FA01E60FF71FE952F94F02
:10223000E4916D01CA18DB08CE0CDF1C6E2E712CE8
:102240001301022E02C0220C331C0A94E2F73A82D8
:102250002982F601308069807A8063281301208208
:10226000A1C22B813C812F5F3F4F3C832B832931BF
:10227000310509F069CF6EEE72E080E090E00E94D7
:102280008B076FEF70E08AE00E94F3066FEF70E05B
:102290008BE00E94F3066FEF70E089E00E94F30686
:1022A00085E00E94E40B8DE00E94E40B10924E0149
:1022B00082E090E00E947C14882369F080916400A1
:1022C000877F8093640080916500877F809365009D
:1022D00081E080934D01809164008E7F8093640043
:1022E00087EC80937C0080E280937B0062E070E06A
:1022F00080E090E00E948B0780917A008064809358
:102300007A0080917A0086FDFCCFE0907800F09012
:102310007900E094F0948EE580937C0062E070E0B8
:1023200080E090E00E948B0780917A008064809327
:102330007A0080917A0086FDFCCF009178001091A0
:1023400079000E94F5049B01AC01209530954095E1
:102350005095009510950E9DD0010F9DB00D1E9DBE
:10236000B00D11240E94A3146B017C010E94F5049E
:102370006C0D7D1D8E1D9F1D6115710581059105DB
:1023800011F00E9473148091640081608093640056
:102390008EE18093700181E2809373010E94D50BDE
:1023A0000E946E142AE730E040E050E00E9484145E
:1023B000DC01CB010396A11DB11D809301010E9498
:1023C0006E142AE330E040E050E00E948414DC0107
:1023D000CB010396A11DB11D8093000153E0352E62
:1023E0006DE7262E8FB7F894409156015091570112
:1023F00060915801709159018FBF80917C018823B1
:1024000089F080917401342F381B30937D018091C5
:102410007101909172010196909372018093710104
:1024200010927C018091780190917901A0917A01BC
:10243000B0917B01481759076A077B077CF4841B1E
:10244000823008F4A7C183B7817F83BF83B78160DF
:1024500083BF889583B78E7F83BF9CC180917301B2
:102460008A019B01080F111D211D311D0093780168
:102470001093790120937A0130937B01409374018A
:1024800050937501609376017093770111E010937A
:102490007C010E94D50B0E941A0587FF05C0809120
:1024A00003018150809303010E941A0584FF05C037
:1024B000809103018F5F809303010E941A0585FFBD
:1024C00005C0809102018150809302010E941A058B
:1024D00086FF05C0809102018F5F80930201809189
:1024E0000201833014F420920201809102018E37A0
:1024F00014F0309202018091030183301CF42DE32B
:1025000020930301809103018E3314F03092030174
:1025100080910201082E000C990B20910101821B71
:10252000910927FD93950496099760F58091030121
:10253000082E000C990B20910001821B910927FDA8
:10254000939504960997F0F40E946E142AE730E000
:1025500040E050E00E948414DC01CB010396A11DF1
:10256000B11D809301010E946E142AE330E040E027
:1025700050E00E948414DC01CB010396A11DB11D23
:102580008093000180910301682E880F77087A827A
:102590006982230102E0401A510860900201062C72
:1025A000000C7708630112E0C11AD108430123E04F
:1025B000820E911C8601D7FE02C000E010E0780177
:1025C000540141E8841691041CF040E8A42EB12C7B
:1025D000EA14FB045CF421E0A201B7018AE691E071
:1025E0000E9447053FEFE31AF30AEACFE980FA8039
:1025F00052E0E50EF11C0A151B0554F421E0A70179
:10260000B8018AE691E00E9447050F5F1F4FF3CFA4
:10261000A980BA8083E0A80EB11C57FE02C0412CED
:10262000512C8201750191E4A916B1041CF030E42B
:10263000E32EF12C0E151F0554F421E0A801B6017C
:102640008AE691E00E9447050F5F1F4FEBCFE2E063
:102650006E0E711C4E145F045CF421E0A201B30104
:102660008AE691E00E944705FFEF4F1A5F0AF2CF1A
:1026700080910001482E880F550800910101002E1D
:10268000000C110BA2014E5F5F4F21E0B8018AE6FA
:1026900091E00E944705A2014250510921E0B80192
:1026A0008AE691E00E944705B8016E5F7F4F21E006
:1026B000A2018AE691E00E944705B80162507109C3
:1026C00021E0A2018AE691E00E944705EE24E3940E
:1026D000F12C22E0622E712C6301C40CD51C21E088
:1026E000A6015701A00EB11EB5018AE691E00E9435
:1026F000470521E0A6016801CE18DF08B6018AE689
:1027000091E00E94470542018618970821E0A40144
:10271000B5018AE691E00E94470521E0A401B601D7
:102720008AE691E00E9447054301800E911E21E058
:102730006701C40CD51CA601B4018AE691E00E9491
:1027400047055801A618B70821E0A601B5018AE699
:1027500091E00E94470521E06201CE18DF08A60142
:10276000B4018AE691E00E94470521E0A601B50187
:102770008AE691E00E9447056A94672839F02FEFB6
:10278000E21AF20A66246394712CA6CF8EE791E0D8
:102790000E94370540E050E0452B09F423CE0E940B
:1027A00000001CCE2115310581F0FA01E60FF71F5C
:1027B000E952F94FE491F0E00D8002C0F595E795FC
:1027C0000A94E2F7DC90ED29EC934F5F5F4F11968E
:1027D0004835510509F022CD14CDE3E9F5E0138227
:1027E000128288EE93E0A0E0B0E084839583A68314
:1027F000B7838FE191E0918380838FEF9FEF95877F
:102800008487EAE6F1E01382128281E391E091830A
:1028100080838CE3868380E1818710861782168609
:102820001786108A118A128A10927F0510927E05EF
:10283000109281051092800581E0809382050895B1
:102840008F929F92AF92BF92CF92DF92EF92FF92C0
:10285000CF93DF93EC01688179818A819B81611537
:1028600071058105910521F464E279ED8BE597E02E
:102870002DE133EF41E050E00E94841449015A01F8
:102880009B01AC01A7EAB1E40E94A3146B017C0197
:10289000ACEEB4EFA50194010E94B114DC01CB01B0
:1028A0008C0D9D1DAE1DBF1DB7FF03C00197A10973
:1028B000B04888839983AA83BB83BC01CD019F77ED
:1028C000DF91CF91FF90EF90DF90CF90BF90AF90CE
:1028D0009F908F9008950E942014089580E191E0C8
:1028E0000E94201408956093100170931101809349
:1028F0001201909313010895F999FECF92BD81BD05
:10290000F89A992780B50895052E97FB1EF4009438
:102910000E949B1457FD07D00E94B61407FC03D0F9
:102920004EF40C949B1450954095309521953F4F53
:102930004F4F5F4F089590958095709561957F4FAB
:102940008F4F9F4F08950E94D814A59F900DB49F5C
:10295000900DA49F800D911D11240895B7FF0C9434
:10296000A3140E94A314821B930B0895A1E21A2EB4
:10297000AA1BBB1BFD010DC0AA1FBB1FEE1FFF1F23
:10298000A217B307E407F50720F0A21BB30BE40B73
:10299000F50B661F771F881F991F1A9469F76095BA
:1029A0007095809590959B01AC01BD01CF01089574
:1029B000A29FB001B39FC001A39F700D811D112480
:1029C000911DB29F700D811D1124911D0895EE0F70
:1029D000FF1F0590F491E02D099481E090E0F894B8
:0829E0000C94F214F894FFCFEF
:1029E80020400303FFFFFFFF00E10000000000009C
:1029F8000100000000C180810000000000000039D3
:102A08000ABA0A5A0A4F0AA00A5E0A7C0A0000009B
:0A2A1800006E0567047706760600DD
:00000001FF
